:100000000C9462000C948A000C948A000C948A0070
:100010000C948A000C948A000C948A000C948A0038
:100020000C948A000C948A000C948A000C948A0028
:100030000C948A000C948A000C948A000C948A0018
:100040000C94F4020C948A000C94C0040C940705E0
:100050000C948A000C948A000C948A000C948A00F8
:100060000C948A000C948A000000000024002700F1
:100070002A0000000000250028002B0000000000DE
:1000800023002600290004040404040404040202DA
:100090000202020203030303030301020408102007
:1000A0004080010204081020010204081020000012
:1000B0000007000201000003040600000000000029
:1000C00000007E0611241FBECFEFD8E0DEBFCDBFFB
:1000D00011E0A0E0B1E0E0EBFEE002C005900D927F
:1000E000A233B107D9F712E0A2E3B1E001C01D923B
:1000F000A232B107E1F710E0C4ECD0E004C02297CF
:10010000FE010E945207C23CD107C9F70E94CE06E9
:100110000C9456070C940000FF920F931F93CF93FB
:10012000DF938C01F62EC0E0D0E015C08F2D61E08A
:100130000E94180469E170E080E090E00E943C03B6
:100140008F2D60E00E94180464EF71E080E090E081
:100150000E943C032196C017D10744F3DF91CF9151
:100160001F910F91FF90089560910001709101011E
:10017000882777FD8095982F0E943C0385E10E9497
:10018000D00390933501809334018C529140C397F2
:1001900030F081E090E090936901809368010895C8
:1001A000EF92FF920F931F93CF93DF938091020101
:1001B00060E00E9418048091040161E00E9418042C
:1001C0006091000170910101882777FD8095982F3B
:1001D0000E943C0384E10E94D0030B974CF0809175
:1001E0006A0190916B01019690936B0180936A0173
:1001F0008CE00E946C0490936F0180936E01892BB8
:1002000049F480916C0190916D01019690936D017C
:1002100080936C01C0E0D0E0609100017091010119
:10022000882777FD8095982F0E943C03FE01EA5FA6
:10023000FE4F80810E946C048130910529F4FE01FB
:10024000E85CFE4F918380832296CE30D10521F762
:10025000C4E1D1E006E411E091E0E92EF12C6091D7
:10026000000170910101882777FD8095982F0E94E9
:100270003C0388810E946C04892B19F4F801F182F7
:10028000E08222960E5F1F4FF1E0C032DF0739F7A0
:100290008091020161E00E9418048091040160E0F5
:1002A0000E9418046091000170910101882777FD78
:1002B0008095982F0E943C0384E10E94D003875FC1
:1002C00093404CF480916A0190916B010196909358
:1002D0006B0180936A018CE00E946C049093710121
:1002E00080937001019749F480916C0190916D01A8
:1002F000019690936D0180936C01C6E0D1E000E51A
:1003000011E081E0E82EF12C609100017091010173
:10031000882777FD8095982F0E943C0388810E9452
:100320006C04892B19F4F801F182E08222960E5FA9
:100330001F4FF1E0C431DF0739F7C0E0D0E0609132
:10034000000170910101882777FD8095982F0E9408
:100350003C03FE01EC5EFE4F80810E946C04813004
:10036000910529F4FE01E85CFE4F97A386A322962F
:10037000CC30D10521F72091320130913301E8E3EF
:10038000F1E080819181892B11F02F5F3F4F3296F0
:1003900081E0E836F807A9F7309333012093320162
:1003A000DF91CF911F910F91FF90EF90089583E01F
:1003B00092E00E94D605181619060CF09DC083E045
:1003C00092E00E9407069093370180933601C1970F
:1003D000B9F581E090E06DE070E00E948C008091C2
:1003E000320190913301892B99F4809168019091A9
:1003F0006901892B69F48DE061E00E9418048AE0AC
:1004000061E00E94180460EA7FE080E090E00EC0A6
:100410006091000170910101882777FD8095982FE8
:100420000E943C0362E370E080E090E00E943C03A5
:100430008DE060E00E9418048AE060E00E941804E9
:100440008091360190913701C29709F055C081E043
:1004500090E06DE070E00E948C0020E0809132011D
:1004600090913301892B09F421E030E080916801FB
:1004700090916901892B09F431E0232330E040E0B9
:1004800050E080916C0190916D01892B11F441E055
:1004900050E024233523232BB9F08DE061E00E9446
:1004A00018048AE061E00E94180460EA7FE080E0BE
:1004B00090E00E943C038DE060E00E9418048AE016
:1004C00060E00E941804089560910001709101019C
:1004D000882777FD8095982F0E943C0362E370E0A7
:1004E00080E090E00E943C038DE060E00E941804F0
:1004F0008AE060E00E9418040895CF93DF93809112
:10050000020161E00E94F2038091020161E00E9419
:1005100018048091040161E00E94F20380910401BB
:1005200061E00E941804C6E0D1E0888161E00E9489
:10053000F203888161E00E941804888160E00E94D3
:10054000F203229681E0C431D80779F7C4E1D1E003
:10055000888161E00E94F203888161E00E941804B2
:10056000888160E00E94F203229681E0C032D807C1
:1005700079F78CE060E00E94F2038CE061E00E9479
:1005800018048DE061E00E94F20381E090E06DE0EC
:1005900070E00E948C008AE061E00E94F20381E03A
:1005A00090E06AE070E00E948C000E94D0000E94FF
:1005B000B4008091020160E00E94F2038091040186
:1005C00060E00E94F20381E090E06DE070E00E9444
:1005D0008C0083E092E040E855E260E070E00E9429
:1005E0005005DF91CF9108951F920F920FB60F9291
:1005F00011242F933F938F939F93AF93BF93809139
:10060000760190917701A0917801B09179013091B4
:100610007A010196A11DB11D232F2D5F2D3720F0EA
:100620002D570196A11DB11D20937A01809376016B
:1006300090937701A0937801B09379018091720132
:1006400090917301A0917401B09175010196A11D63
:10065000B11D8093720190937301A0937401B093C4
:100660007501BF91AF919F918F913F912F910F9005
:100670000FBE0F901F9018959B01AC017FB7F894A7
:100680008091720190917301A0917401B0917501F4
:1006900066B5A89B05C06F3F19F00196A11DB11D5D
:1006A0007FBFBA2FA92F982F8827860F911DA11DD4
:1006B000B11D62E0880F991FAA1FBB1F6A95D1F771
:1006C000BC012DC0FFB7F894809172019091730125
:1006D000A0917401B0917501E6B5A89B05C0EF3FEC
:1006E00019F00196A11DB11DFFBFBA2FA92F982F98
:1006F00088278E0F911DA11DB11DE2E0880F991F63
:10070000AA1FBB1FEA95D1F7861B970B885E934003
:10071000C8F2215030404040504068517C4F211574
:1007200031054105510571F60895789484B58260CC
:1007300084BD84B5816084BD85B5826085BD85B585
:10074000816085BDEEE6F0E0808181608083E1E834
:10075000F0E010828081826080838081816080836C
:10076000E0E8F0E0808181608083E1EBF0E080816F
:1007700084608083E0EBF0E0808181608083EAE741
:10078000F0E08081846080838081826080838081CA
:10079000816080838081806880831092C100089589
:1007A000982F8E3008F09E5097708091200182958E
:1007B000880F880F807C892B80937C0080917A0041
:1007C000806480937A0080917A0086FDFCCF20912E
:1007D000780040917900942F80E030E0282B392B6D
:1007E000C9010895482F50E0CA0186569F4FFC0169
:1007F00024914A575F4FFA0184918823C1F0E82F72
:10080000F0E0EE0FFF1FE859FF4FA591B49166236A
:1008100041F49FB7F8948C91209582238C939FBFCD
:1008200008959FB7F8948C91822B8C939FBF089565
:10083000482F50E0CA0182559F4FFC012491CA0104
:1008400086569F4FFC0194914A575F4FFA013491AD
:10085000332309F440C0222351F1233071F02430B6
:1008600028F42130A1F0223011F514C02630B1F067
:100870002730C1F02430D9F404C0809180008F77F4
:1008800003C0809180008F7D8093800010C084B56C
:100890008F7702C084B58F7D84BD09C08091B00080
:1008A0008F7703C08091B0008F7D8093B000E32FDD
:1008B000F0E0EE0FFF1FEE58FF4FA591B4912FB758
:1008C000F894662321F48C919095892302C08C9131
:1008D000892B8C932FBF0895682F70E0CB01825530
:1008E0009F4FFC012491CB0186569F4FFC01449100
:1008F0006A577F4FFB019491992319F420E030E06F
:100900003CC0222351F1233071F0243028F42130EF
:10091000A1F0223011F514C02630B1F02730C1F01B
:100920002430D9F404C0809180008F7703C0809177
:1009300080008F7D8093800010C084B58F7702C0C7
:1009400084B58F7D84BD09C08091B0008F7703C0CE
:100950008091B0008F7D8093B000892F90E0880F48
:10096000991F84589F4FFC01A591B4918C9120E070
:1009700030E0842311F021E030E0C90108950895AA
:100980001F920F920FB60F9211242F933F934F9304
:100990008F939F93EF93FF934091C6002091BB01EB
:1009A0003091BC012F5F3F4F2F7330708091BD019C
:1009B0009091BE012817390759F0E091BB01F091E1
:1009C000BC01E558FE4F40833093BC012093BB012E
:1009D000FF91EF919F918F914F913F912F910F90A8
:1009E0000FBE0F901F901895E0910F02F09110022A
:1009F000E05CFF4F8191919120813181821B930BAB
:100A00008F739070892B11F00E94BF0408951F927C
:100A10000F920FB60F9211242F933F934F935F9332
:100A20006F937F938F939F93AF93BF93EF93FF93B6
:100A30002091FF0130910002809101029091020209
:100A40002817390731F48091C1008F7D8093C10050
:100A500016C0E0910102F0910202E154FE4F408184
:100A60008091010290910202019660E470E00E9480
:100A7000070790930202809301024093C600FF9102
:100A8000EF91BF91AF919F918F917F916F915F9106
:100A90004F913F912F910F900FBE0F901F9018957F
:100AA000AF92BF92DF92EF92FF920F931F93CF937B
:100AB000DF93EC017A018B01DD24403081EE580791
:100AC00080E0680780E0780711F0DD24D39491E09E
:100AD000A92EB12CEC89FD89DD2069F0C5010E8CB1
:100AE00002C0880F991F0A94E2F7808360E079E0E2
:100AF0008DE390E005C0108260E874E88EE190E03C
:100B0000A80197010E941A072150304040405040F0
:100B1000569547953795279580E12030380720F086
:100B2000DD2011F0DD24D6CFE889F9893083EA8908
:100B3000FB892083EE89FF89408121E030E0C901F3
:100B40000A8C02C0880F991F0A94E2F7482B408351
:100B5000EE89FF894081C9010B8C02C0880F991F63
:100B60000A94E2F7482B4083EE89FF894081C9014E
:100B70000C8C02C0880F991F0A94E2F7482B40831F
:100B8000EE89FF8980810D8C02C0220F331F0A94E9
:100B9000E2F7209528232083DF91CF911F910F91B9
:100BA000FF90EF90DF90BF90AF900895DC011C960E
:100BB000ED91FC911D97E05CFF4F21913191808177
:100BC0009181281B390B2F733070C9010895DC0106
:100BD0001C96ED91FC911D97E05CFF4F20813181C7
:100BE000E054F040DF01AE5BBF4F8D919C911197B7
:100BF0002817390719F42FEF3FEF07C08D919C910B
:100C0000E80FF91F8081282F30E0C9010895DC0129
:100C10001C96ED91FC911D97E05CFF4F2081318186
:100C2000E054F040DF01AE5BBF4F8D919C91119776
:100C30002817390719F42FEF3FEF10C08D919C91C1
:100C40001197E80FF91F20818D919C9111970196C2
:100C50008F73907011969C938E9330E0C901089524
:100C6000FC0186859785DC01A05CBF4FFC01EE5B33
:100C7000FF4F2D913C911197808191812817390761
:100C8000C1F70895CF93DF93EC01462FEE85FF85E2
:100C9000E05CFF4F80819181E054F040019660E478
:100CA00070E00E9407079C01DF01AE5BBF4F8D9192
:100CB0009C91119728173907D1F3E05CFF4F808191
:100CC0009181E054F040E80FF91F4083EE85FF85E5
:100CD000E05CFF4F31832083EE89FF89208181E032
:100CE00090E00D8C02C0880F991F0A94E2F7282B20
:100CF000208381E090E0DF91CF9108951092060269
:100D00001092050288EE93E0A0E0B0E08093070225
:100D100090930802A0930902B0930A0285E291E041
:100D200090930402809303028BE791E0909310026A
:100D300080930F028FEB91E0909312028093110247
:100D400085EC90E0909314028093130284EC90E081
:100D5000909316028093150280EC90E09093180215
:100D60008093170281EC90E090931A02809319020D
:100D700086EC90E090931C0280931B0284E08093A9
:100D80001D0283E080931E0287E080931F0285E0AE
:100D90008093200281E0809321020895CF93DF9316
:100DA0000E9495030E947D02C4EFD4E00E94D70107
:100DB0002097E1F30E94F404F9CFCF92DF92EF92F3
:100DC000FF920F931F93CF93DF937C016B018A01F6
:100DD000C0E0D0E00FC0D6016D916D01D701ED915B
:100DE000FC910190F081E02DC7010995C80FD91F32
:100DF000015010400115110571F7CE01DF91CF911F
:100E00001F910F91FF90EF90DF90CF90089597FB87
:100E1000092E07260AD077FD04D02ED006D0002058
:100E20001AF4709561957F4F0895F6F79095819526
:100E30009F4F0895A1E21A2EAA1BBB1BFD010DC0F6
:100E4000AA1FBB1FEE1FFF1FA217B307E407F5077A
:100E500020F0A21BB30BE40BF50B661F771F881F56
:100E6000991F1A9469F760957095809590959B01EC
:100E7000AC01BD01CF010895AA1BBB1B51E107C006
:100E8000AA1FBB1FA617B70710F0A61BB70B881F1A
:100E9000991F5A95A9F780959095BC01CD010895A9
:100EA000EE0FFF1F0590F491E02D0994F894FFCF09
:100EB00064000E000F001000120001000300050086
:100EC00007000900110013000200040006000800DA
:100ED00001000000004206DD06D6050706E70530E2
:100EE0000600FFFFFFFFFFFFFFFFFFFFFFFFFFFF0A
:100EF000FFFFFFFFFFFFFFFFFFFFFFFFFFFFFFFF02
:100F00006D01D701ED91FC910190F081E02DC701B9
:100F10000995C80FD91F015010400115110571F72F
:100F2000CE01DF91CF911F910F91FF90EF90DF9055
:100F3000CF900895EF92FF920F931F938C01DC01E5
:100F4000ED91FC910190F081E02D6DE009957C011F
:100F5000D801ED91FC910190F081E02DC8016AE08B
:100F600009959C012E0D3F1DC9011F910F91FF9006
:100F7000EF900895CF93DF93DB010D900020E9F708
:100F80001197A61BB70BEC01E881F9810280F38170
:100F9000E02DAD010995DF91CF9108954F925F92B9
:100FA0007F928F929F92AF92BF92CF92DF92EF92F9
:100FB000FF920F931F93DF93CF93CDB7DEB7A19727
:100FC0000FB6F894DEBF0FBECDBF2C01742ECB013F
:100FD000223008F42AE019A231E2C32ED12CCC0E23
:100FE000DD1E822E9924AA24BB24672D752FA5010E
:100FF00094010E94D90879018A01C801B701A501AD
:1010000094010E94A708472D461B0894C108D108E7
:101010004A3014F4405D01C0495CF6014083E1149C
:10102000F1040105110521F07E2C5F2DC801DDCFF3
:10103000C201B6010E94BA07A1960FB6F894DEBFAE
:101040000FBECDBFCF91DF911F910F91FF90EF9019
:10105000DF90CF90BF90AF909F908F907F905F90E8
:101060004F900895CF92DF92EF92FF920F931F93CC
:10107000CF93DF93EC016A017B012115310541F427
:10108000E881F9810190F081E02D642F09951FC05E
:101090002A303105D1F477FF17C0E881F98101903A
:1010A000F081E02D6DE209958C0144275527BA01A6
:1010B0004C195D096E097F09CE012AE00E94CE0716
:1010C0009801280F391F04C02AE00E94CE079C0116
:1010D000C901DF91CF911F910F91FF90EF90DF90A9
:1010E000CF900895EF92FF920F931F937B019A0187
:1010F0000027F7FC0095102FB801A7010E943208C5
:101100001F910F91FF90EF900895CF92DF92EF9291
:10111000FF920F931F936C017B019A010027F7FC4C
:101120000095102FB801A7010E9432088C01C6015A
:101130000E949A07080F191FC8011F910F91FF9075
:10114000EF90DF90CF9008950E94BA070895629FB4
:10115000D001739FF001829FE00DF11D649FE00DAF
:10116000F11D929FF00D839FF00D749FF00D659F10
:10117000F00D9927729FB00DE11DF91F639FB00D0F
:10118000E11DF91FBD01CF011124089597FB092E20
:1011900007260AD077FD04D02ED006D000201AF4FE
:1011A000709561957F4F0895F6F7909581959F4FC3
:1011B0000895A1E21A2EAA1BBB1BFD010DC0AA1F98
:1011C000BB1FEE1FFF1FA217B307E407F50720F0B0
:1011D000A21BB30BE40BF50B661F771F881F991F2B
:1011E0001A9469F760957095809590959B01AC0174
:1011F000BD01CF010895AA1BBB1B51E107C0AA1F67
:10120000BB1FA617B70710F0A61BB70B881F991FA7
:101210005A95A9F780959095BC01CD010895EE0FE0
:10122000FF1F0590F491E02D0994F894FFCF3A2028
:10123000006431325F6661696C7572653A006431D1
:10124000322D70315F72656164696E673A00643196
:10125000322D70325F72656164696E673A00643284
:10126000305F6661696C7572653A00746F74616CA9
:101270005F696F5F6661696C757265733A0076725B
:1012800065665F6661696C7572653A00767265665F
:101290005F72656164696E673A0064000E000F005A
:1012A00010001200010003000500070009001100F2
:1012B000130002000400060008000100000000D531
:1012C00006700769069A067A06C30600FFFFFFFF4D
:1012D000FFFFFFFFFFFFFFFFFFFFFFFFFFFFFFFF1E
:1012E000FFFFFFFFFFFFFFFFFFFFFFFFFFFFFFFF0E
:1012F000FFFFFFFFFFFFFFFFFFFFFFFFFFFFFFFFFE
:101300000064000E000F0010001200010003000531
:101310000007000900110013000200040006000885
:10132000000100000000E90684077D06AE068E0677
:10133000D706FFFFFFFFFFFFFFFFFFFFFFFFFFFFDE
:10134000FFFFFFFFFFFFFFFFFFFFFFFFFFFFFFFFAD
:10135000FFFFFFFFFFFFFFFFFFFFFFFFFFFFFFFF9D
:10136000FFFFFFFFFFFFFFFFFFFFFFFFFFFFFFFF8D
:10137000FFFFFFFFFFFFFFFFFFFFFFFFFFFFFFFF7D
:101380000001000000002E07C907C206F306D306BD
:101390001C07FFFFFFFFFFFFFFFFFFFFFFFFFFFF38
:1013A000FFFFFFFFFFFFFFFFFFFFFFFFFFFFFFFF4D
:1013B000FFFFFFFFFFFFFFFFFFFFFFFFFFFFFFFF3D
:1013C000FFFFFFFFFFFFFFFFFFFFFFFFFFFFFFFF2D
:1013D000FFFFFFFFFFFFFFFFFFFFFFFFFFFFFFFF1D
:1013E000FFFFFFFFFFFFFFFFFFFFFFFFFFFFFFFF0D
:1013F000FFFFFFFFFFFFFFFFFFFFFFFFFFFFFFFFFD
:1014000061957F4F0895F6F7909581959F4F0895C8
:10141000A1E21A2EAA1BBB1BFD010DC0AA1FBB1FF8
:10142000EE1FFF1FA217B307E407F50720F0A21B6A
:10143000B30BE40BF50B661F771F881F991F1A94D7
:1014400069F760957095809590959B01AC01BD0101
:10145000CF010895AA1BBB1B51E107C0AA1FBB1FE8
:10146000A617B70710F0A61BB70B881F991F5A9530
:10147000A9F780959095BC01CD010895EE0FFF1F4F
:101480000590F491E02D0994F894FFCF767265668B
:10149000206F757473696465206C696D697473007D
:1014A0007672656620696E73696465206C696D6922
:1014B00074730050617274203100413D302C204221
:1014C0003D310041444332303A003A005061727479
:1014D000203200413D312C20423D30006661696C74
:1014E0007572653A0064000E000F001000120003D0
:1014F00000030005000700090011001300020004AA
:1015000000060008000C000100000000F1078C0834
:101510008507B6079607DF07FFFFFFFFFFFFFFFF07
:10152000FFFFFFFFFFFFFFFFFFFFFFFFFFFFFFFFCB
:1077F000FFFFFFFFFFFFFFFFFFFFFFFFFFFFFFFF99
:107800000C94343C0C94513C0C94513C0C94513CE1
:107810000C94513C0C94513C0C94513C0C94513CB4
:107820000C94513C0C94513C0C94513C0C94513CA4
:107830000C94513C0C94513C0C94513C0C94513C94
:107840000C94513C0C94513C0C94513C0C94513C84
:107850000C94513C0C94513C0C94513C0C94513C74
:107860000C94513C0C94513C11241FBECFEFD8E036
:10787000DEBFCDBF11E0A0E0B1E0ECE9FFE702C060
:1078800005900D92A230B107D9F712E0A2E0B1E065
:1078900001C01D92AD30B107E1F70E942D3D0C945F
:1078A000CC3F0C94003C982F959595959595959582
:1078B000905D8F708A307CF0282F295A8091C0000B
:1078C00085FFFCCF9093C6008091C00085FFFCCF60
:1078D0002093C6000895282F205DF0CF982F809127
:1078E000C00085FFFCCF9093C6000895EF92FF92F1
:1078F0000F931F93EE24FF2487018091C00087FD22
:1079000017C00894E11CF11C011D111D81E4E8164B
:1079100082E4F8068FE0080780E0180770F3E09132
:107920000401F091050109958091C00087FFE9CF1E
:107930008091C6001F910F91FF90EF9008950E94D3
:10794000763C982F8091C00085FFFCCF9093C600B5
:1079500091362CF490330CF09053892F089597555D
:10796000892F08951F930E949F3C182F0E949F3CCF
:107970001295107F810F1F9108951F93182F882350
:1079800021F00E94763C1150E1F71F9108951F935A
:10799000182F0E94763C803249F0809103018F5F5E
:1079A000809303018530C1F01F9108958091C0003C
:1079B00085FFFCCF84E18093C6008091C00085FFE5
:1079C000FCCF1093C6008091C00085FFFCCF80E102
:1079D0008093C6001F910895E0910401F091050184
:1079E00009951F9108950E94763C803241F0809164
:1079F00003018F5F80930301853081F008958091AA
:107A0000C00085FFFCCF84E18093C6008091C00058
:107A100085FFFCCF80E18093C6000895E0910401CA
:107A2000F09105010995089540E951E08823A1F0FE
:107A30002D9A28EE33E0FA013197F1F721503040CA
:107A4000D1F72D9828EE33E0FA013197F1F7215064
:107A50003040D1F7815061F708953F924F925F9285
:107A60006F927F928F929F92AF92BF92CF92DF924E
:107A7000EF92FF920F931F93CF93DF93000080E16B
:107A80008093C4001092C50088E18093C10086E015
:107A90008093C2005098589A259A81E00E94143D24
:107AA00024E1F22E9EE1E92E85E9D82E0FE0C02ECA
:107AB00010E1B12EAA24A394B1E49B2EA6E58A2E50
:107AC000F2E57F2EE0E26E2E79E4572E63E5462E36
:107AD00050E5352E0E94763C8033B1F18133B9F107
:107AE000803409F46FC0813409F476C0823409F41B
:107AF00085C0853409F488C0803531F1823521F1A3
:107B0000813511F1853509F485C0863509F48DC0BC
:107B1000843609F496C0843709F403C1853709F423
:107B200072C1863709F466C0809103018F5F80932C
:107B30000301853079F6E0910401F0910501099582
:107B40000E94763C803351F60E94F33CC3CF0E94E2
:107B5000763C803249F78091C00085FFFCCFF092DF
:107B6000C6008091C00085FFFCCF9092C600809136
:107B7000C00085FFFCCF8092C6008091C00085FFC9
:107B8000FCCF7092C6008091C00085FFFCCF609250
:107B9000C6008091C00085FFFCCF5092C600809146
:107BA000C00085FFFCCF4092C6008091C00085FFD9
:107BB000FCCF3092C6008091C00085FFFCCFB09210
:107BC000C60088CF0E94763C863808F4BDCF0E945C
:107BD000763C0E94F33C7ECF0E94763C803809F4CC
:107BE0009CC0813809F40BC1823809F43CC1883942
:107BF00009F48FC080E00E94C73C6CCF84E10E94F2
:107C0000BD3C0E94F33C66CF85E00E94BD3C0E94D3
:107C1000F33C60CF0E94763C809306010E94763C44
:107C2000809307010E94F33C55CF0E94763C80333D
:107C300009F41DC183E00E94BD3C80E00E94C73C66
:107C400049CF0E94763C809309020E94763C809343
:107C5000080280910C028E7F80930C020E94763C79
:107C6000853409F415C18091080290910902892B8D
:107C700089F000E010E00E94763CF801E85FFE4FDA
:107C800080830F5F1F4F80910802909109020817AF
:107C9000190788F30E94763C803209F045CF809125
:107CA0000C0280FF01C16091060170910701660F0F
:107CB000771F7093070160930601A0910802B091AD
:107CC00009021097C9F0E8E0F1E09B01AD014E0F09
:107CD0005F1FF999FECF32BD21BD819180BDFA9A17
:107CE000F99A2F5F3F4FE417F50799F76A0F7B1F4B
:107CF00070930701609306018091C00085FFFCCF5F
:107D0000F092C6008091C00085FFFCCFB092C60003
:107D1000E1CE83E00E94C73CDDCE82E00E94C73CFA
:107D2000D9CE0E94763C809309020E94763C8093D3
:107D300008028091060190910701880F991F909386
:107D40000701809306010E94763C853409F4A6C0A1
:107D500080910C028E7F80930C020E94763C8032D0
:107D600009F0B8CE8091C00085FFFCCFF092C6002C
:107D7000609108027091090261157105B9F140E046
:107D800050E080910C02A82FA170B82FB27011C0E2
:107D9000BB2309F45CC0E0910601F0910701319624
:107DA000F0930701E09306014F5F5F4F46175707B7
:107DB000E8F4AA2369F3F999FECF209106013091E6
:107DC000070132BD21BDF89A90B58091C00085FFB2
:107DD000FCCF9093C6002F5F3F4F30930701209355
:107DE00006014F5F5F4F4617570718F38091C00099
:107DF00085FDE5CE8091C00085FFF8CFE0CE81E023
:107E00000E94C73C67CE0E94763C803209F08CCE3F
:107E10008091C00085FFFCCFF092C6008091C00029
:107E200085FFFCCFE092C6008091C00085FFFCCFAB
:107E3000D092C6008091C00085FFFCCFC092C600E2
:107E40008091C00085FFFCCFB092C60043CEE09188
:107E50000601F091070194918091C00085FFFCCF4D
:107E60009093C6009CCF80E10E94C73C33CE0E9415
:107E7000763C0E94763C182F0E94763C112309F430
:107E800083C0113009F484C08FE00E94C73C22CE29
:107E900080910C02816080930C02E5CE80910C02EF
:107EA000816080930C0259CF809107018823880F4D
:107EB000880B8A2180930B02809106019091070123
:107EC000880F991F90930701809306018091080203
:107ED00080FF09C080910802909109020196909359
:107EE000090280930802F894F999FECF1127E091D6
:107EF0000601F0910701C8E0D1E08091080290915D
:107F00000902103091F40091570001700130D9F34B
:107F100003E000935700E89500915700017001308D
:107F2000D9F301E100935700E89509901990009169
:107F3000570001700130D9F301E000935700E89534
:107F40001395103498F011270091570001700130FB
:107F5000D9F305E000935700E895009157000170B0
:107F60000130D9F301E100935700E895329602976A
:107F700009F0C7CF103011F00296E5CF112480919F
:107F8000C00085FFB9CEBCCE8EE10E94C73CA2CD19
:107F900085E90E94C73C9ECDF894FFCF8000FFFF8B
:107FA000FFFFFFFFFFFFFFFFFFFFFFFFFFFFFFFFE1
:107FB000FFFFFFFFFFFFFFFFFFFFFFFFFFFFFFFFD1
:107FC000FFFFFFFFFFFFFFFFFFFFFFFFFFFFFFFFC1
:107FD000FFFFFFFFFFFFFFFFFFFFFFFFFFFFFFFFB1
:107FE000FFFFFFFFFFFFFFFFFFFFFFFFFFFFFFFFA1
:107FF000FFFFFFFFFFFFFFFFFFFFFFFFFFFFFFFF91
:00000001FF
